{
  "contractName": "Oracle",
  "abi": [
    {
      "anonymous": false,
      "inputs": [
        {
          "indexed": false,
          "internalType": "uint256",
          "name": "id",
          "type": "uint256"
        },
        {
          "indexed": false,
          "internalType": "string",
          "name": "urlToQuery",
          "type": "string"
        },
        {
          "indexed": false,
          "internalType": "string",
          "name": "attributeToFetch",
          "type": "string"
        }
      ],
      "name": "NewRequest",
      "type": "event"
    },
    {
      "anonymous": false,
      "inputs": [
        {
          "indexed": false,
          "internalType": "uint256",
          "name": "id",
          "type": "uint256"
        },
        {
          "indexed": false,
          "internalType": "string",
          "name": "urlToQuery",
          "type": "string"
        },
        {
          "indexed": false,
          "internalType": "string",
          "name": "attributeToFetch",
          "type": "string"
        },
        {
          "indexed": false,
          "internalType": "string",
          "name": "agreedValue",
          "type": "string"
        }
      ],
      "name": "UpdatedRequest",
      "type": "event"
    },
    {
      "constant": false,
      "inputs": [
        {
          "internalType": "string",
          "name": "_urlToQuery",
          "type": "string"
        },
        {
          "internalType": "string",
          "name": "_attributeToFetch",
          "type": "string"
        }
      ],
      "name": "createRequest",
      "outputs": [],
      "payable": false,
      "stateMutability": "nonpayable",
      "type": "function"
    },
    {
      "constant": false,
      "inputs": [
        {
          "internalType": "uint256",
          "name": "_id",
          "type": "uint256"
        },
        {
          "internalType": "string",
          "name": "_valueRetrieved",
          "type": "string"
        }
      ],
      "name": "updateRequest",
      "outputs": [],
      "payable": false,
      "stateMutability": "nonpayable",
      "type": "function"
    }
  ],
  "bytecode": "0x6080604052600060015534801561001557600080fd5b50610886806100256000396000f3fe608060405234801561001057600080fd5b50600436106100365760003560e01c8063cfb0ac991461003b578063df89f81914610100575b600080fd5b6100fe6004803603604081101561005157600080fd5b81019080803590602001909291908035906020019064010000000081111561007857600080fd5b82018360208201111561008a57600080fd5b803590602001918460018302840111640100000000831117156100ac57600080fd5b91908080601f016020809104026020016040519081016040528093929190818152602001838380828437600081840152601f19601f820116905080830192505050505050509192919290505050610252565b005b6102506004803603604081101561011657600080fd5b810190808035906020019064010000000081111561013357600080fd5b82018360208201111561014557600080fd5b8035906020019184600183028401116401000000008311171561016757600080fd5b91908080601f016020809104026020016040519081016040528093929190818152602001838380828437600081840152601f19601f820116905080830192505050505050509192919290803590602001906401000000008111156101ca57600080fd5b8201836020820111156101dc57600080fd5b803590602001918460018302840111640100000000831117156101fe57600080fd5b91908080601f016020809104026020016040519081016040528093929190818152602001838380828437600081840152601f19601f8201169050808301925050505050505091929192905050506104c9565b005b600080838154811061026057fe5b906000526020600020906005020190503373ffffffffffffffffffffffffffffffffffffffff168160040160009054906101000a900473ffffffffffffffffffffffffffffffffffffffff1673ffffffffffffffffffffffffffffffffffffffff1614156104c457818160030190805190602001906102e092919061072c565b507f51f1e1f00d186e79f8ea7c82be079fcdd49fe881904a9cdc1903345eb69d38318160000154826001018360020184600301604051808581526020018060200180602001806020018481038452878181546001816001161561010002031660029004815260200191508054600181600116156101000203166002900480156103aa5780601f1061037f576101008083540402835291602001916103aa565b820191906000526020600020905b81548152906001019060200180831161038d57829003601f168201915b505084810383528681815460018160011615610100020316600290048152602001915080546001816001161561010002031660029004801561042d5780601f106104025761010080835404028352916020019161042d565b820191906000526020600020905b81548152906001019060200180831161041057829003601f168201915b50508481038252858181546001816001161561010002031660029004815260200191508054600181600116156101000203166002900480156104b05780601f10610485576101008083540402835291602001916104b0565b820191906000526020600020905b81548152906001019060200180831161049357829003601f168201915b505097505050505050505060405180910390a15b505050565b60006040518060a00160405280600154815260200184815260200183815260200160405180602001604052806000815250815260200173b6bec2669f296fcaa7ec42252e5e4be3f0fe503373ffffffffffffffffffffffffffffffffffffffff168152509080600181540180825580915050906001820390600052602060002090600502016000909192909190915060008201518160000155602082015181600101908051906020019061057e9291906107ac565b50604082015181600201908051906020019061059b9291906107ac565b5060608201518160030190805190602001906105b89291906107ac565b5060808201518160040160006101000a81548173ffffffffffffffffffffffffffffffffffffffff021916908373ffffffffffffffffffffffffffffffffffffffff1602179055505050507f0312239616abfb14f7ffa065155abb0ca047274d86c965890db4c8a48b8ce4b66001548383604051808481526020018060200180602001838103835285818151815260200191508051906020019080838360005b83811015610673578082015181840152602081019050610658565b50505050905090810190601f1680156106a05780820380516001836020036101000a031916815260200191505b50838103825284818151815260200191508051906020019080838360005b838110156106d95780820151818401526020810190506106be565b50505050905090810190601f1680156107065780820380516001836020036101000a031916815260200191505b509550505050505060405180910390a16001600081548092919060010191905055505050565b828054600181600116156101000203166002900490600052602060002090601f016020900481019282601f1061076d57805160ff191683800117855561079b565b8280016001018555821561079b579182015b8281111561079a57825182559160200191906001019061077f565b5b5090506107a8919061082c565b5090565b828054600181600116156101000203166002900490600052602060002090601f016020900481019282601f106107ed57805160ff191683800117855561081b565b8280016001018555821561081b579182015b8281111561081a5782518255916020019190600101906107ff565b5b509050610828919061082c565b5090565b61084e91905b8082111561084a576000816000905550600101610832565b5090565b9056fea265627a7a72315820d2f46b2758e2bc42c1aa3e1e01b1069a4fc50ba5eeb424f825dfca9610c7f4f164736f6c63430005100032",
  "source": "pragma solidity >=0.4.21 <0.6.0;\r\n\r\ncontract Oracle {\r\n    Request[] requests; //list of requests made to the contract\r\n    uint currentId = 0; //increasing request id\r\n\r\n    // defines a general api request\r\n    struct Request {\r\n        uint id;                            //request id\r\n        string urlToQuery;                  //API url\r\n        string attributeToFetch;            //json attribute (key) to retrieve in the response\r\n        string agreedValue;                 //value from key\r\n        address oracle;                     //oracle which will query the answer\r\n    }\r\n\r\n    //event that triggers oracle outside of the blockchain\r\n    event NewRequest (\r\n        uint id,\r\n        string urlToQuery,\r\n        string attributeToFetch\r\n    );\r\n\r\n    //triggered when there's a consensus on the final result\r\n    event UpdatedRequest (\r\n        uint id,\r\n        string urlToQuery,\r\n        string attributeToFetch,\r\n        string agreedValue\r\n    );\r\n\r\n    function createRequest (\r\n        string memory _urlToQuery,\r\n        string memory _attributeToFetch\r\n    )\r\n    public\r\n    {\r\n        requests.push(Request(currentId, _urlToQuery, _attributeToFetch, \"\", address(0xB6bEC2669F296fCaA7EC42252e5e4Be3f0FE5033) ));\r\n\r\n        // launch an event to be detected by oracle outside of blockchain\r\n        emit NewRequest (\r\n            currentId,\r\n            _urlToQuery,\r\n            _attributeToFetch\r\n        );\r\n\r\n        // increase request id\r\n        currentId++;\r\n    }\r\n\r\n    //called by the oracle to record its answer\r\n    function updateRequest (\r\n        uint _id,\r\n        string memory _valueRetrieved\r\n    ) public {\r\n\r\n        Request storage currRequest = requests[_id];\r\n\r\n        //check if oracle is the trusted oracle\r\n        if( currRequest.oracle == address(msg.sender) ){\r\n            currRequest.agreedValue = _valueRetrieved;\r\n                emit UpdatedRequest (\r\n                        currRequest.id,\r\n                        currRequest.urlToQuery,\r\n                        currRequest.attributeToFetch,\r\n                        currRequest.agreedValue\r\n                );\r\n\r\n        }\r\n    }\r\n}\r\n\r\n\r\n",
  "sourcePath": "C:\\Users\\39349\\Desktop\\Oracoli\\oracle-on-chain\\contracts\\Oracle.sol",
  "compiler": {
    "name": "solc",
    "version": "0.5.16+commit.9c3226ce.Emscripten.clang"
  },
  "schemaVersion": "3.4.4",
  "updatedAt": "2022-01-24T16:51:15.784Z",
  "networkType": "ethereum",
  "devdoc": {
    "methods": {}
  },
  "userdoc": {
    "methods": {}
  }
}