{
  "contractName": "Oracle",
  "abi": [
    {
      "anonymous": false,
      "inputs": [
        {
          "indexed": false,
          "internalType": "uint256",
          "name": "id",
          "type": "uint256"
        },
        {
          "indexed": false,
          "internalType": "string",
          "name": "urlToQuery",
          "type": "string"
        },
        {
          "indexed": false,
          "internalType": "string",
          "name": "attributeToFetch",
          "type": "string"
        }
      ],
      "name": "NewRequest",
      "type": "event"
    },
    {
      "anonymous": false,
      "inputs": [
        {
          "indexed": false,
          "internalType": "uint256",
          "name": "id",
          "type": "uint256"
        },
        {
          "indexed": false,
          "internalType": "string",
          "name": "urlToQuery",
          "type": "string"
        },
        {
          "indexed": false,
          "internalType": "string",
          "name": "attributeToFetch",
          "type": "string"
        },
        {
          "indexed": false,
          "internalType": "string",
          "name": "agreedValue",
          "type": "string"
        }
      ],
      "name": "UpdatedRequest",
      "type": "event"
    },
    {
      "constant": false,
      "inputs": [
        {
          "internalType": "string",
          "name": "_urlToQuery",
          "type": "string"
        },
        {
          "internalType": "string",
          "name": "_attributeToFetch",
          "type": "string"
        }
      ],
      "name": "createRequest",
      "outputs": [],
      "payable": false,
      "stateMutability": "nonpayable",
      "type": "function"
    },
    {
      "constant": false,
      "inputs": [
        {
          "internalType": "uint256",
          "name": "_id",
          "type": "uint256"
        },
        {
          "internalType": "string",
          "name": "_valueRetrieved",
          "type": "string"
        }
      ],
      "name": "updateRequest",
      "outputs": [],
      "payable": false,
      "stateMutability": "nonpayable",
      "type": "function"
    },
    {
      "constant": true,
      "inputs": [
        {
          "internalType": "uint256",
          "name": "index",
          "type": "uint256"
        }
      ],
      "name": "_getAgreedValue",
      "outputs": [
        {
          "internalType": "string",
          "name": "",
          "type": "string"
        }
      ],
      "payable": false,
      "stateMutability": "view",
      "type": "function"
    },
    {
      "constant": true,
      "inputs": [
        {
          "internalType": "uint256",
          "name": "index",
          "type": "uint256"
        }
      ],
      "name": "_getPayerAddress",
      "outputs": [
        {
          "internalType": "address",
          "name": "",
          "type": "address"
        }
      ],
      "payable": false,
      "stateMutability": "view",
      "type": "function"
    },
    {
      "constant": true,
      "inputs": [
        {
          "internalType": "string",
          "name": "s",
          "type": "string"
        }
      ],
      "name": "_mine",
      "outputs": [
        {
          "internalType": "uint256",
          "name": "",
          "type": "uint256"
        }
      ],
      "payable": false,
      "stateMutability": "pure",
      "type": "function"
    },
    {
      "constant": true,
      "inputs": [
        {
          "internalType": "uint256",
          "name": "index",
          "type": "uint256"
        },
        {
          "internalType": "uint256",
          "name": "headOffset",
          "type": "uint256"
        },
        {
          "internalType": "uint256",
          "name": "tailOffset",
          "type": "uint256"
        }
      ],
      "name": "_testOffset",
      "outputs": [
        {
          "internalType": "string",
          "name": "t",
          "type": "string"
        }
      ],
      "payable": false,
      "stateMutability": "view",
      "type": "function"
    },
    {
      "constant": true,
      "inputs": [
        {
          "internalType": "uint256",
          "name": "index",
          "type": "uint256"
        }
      ],
      "name": "getArraySize",
      "outputs": [
        {
          "internalType": "uint256",
          "name": "size",
          "type": "uint256"
        }
      ],
      "payable": false,
      "stateMutability": "view",
      "type": "function"
    },
    {
      "constant": true,
      "inputs": [
        {
          "internalType": "uint256",
          "name": "index",
          "type": "uint256"
        }
      ],
      "name": "getArrayInt",
      "outputs": [
        {
          "internalType": "uint256[]",
          "name": "ints",
          "type": "uint256[]"
        }
      ],
      "payable": false,
      "stateMutability": "view",
      "type": "function"
    },
    {
      "constant": true,
      "inputs": [
        {
          "internalType": "uint256",
          "name": "index",
          "type": "uint256"
        }
      ],
      "name": "getArrayAddr",
      "outputs": [
        {
          "internalType": "address[]",
          "name": "addrs",
          "type": "address[]"
        }
      ],
      "payable": false,
      "stateMutability": "view",
      "type": "function"
    }
  ],
  "bytecode": "0x6080604052600060015534801561001557600080fd5b506114e7806100256000396000f3fe608060405234801561001057600080fd5b50600436106100935760003560e01c8063b11882d211610066578063b11882d2146101ef578063b84fc7c014610228578063cfb0ac99146102cc578063d554693314610379578063df89f8191461039657610093565b80635b49e4b8146100985780635cbb44ea146100c757806388072f21146101655780638a61ca7d14610182575b600080fd5b6100b5600480360360208110156100ae57600080fd5b50356104bf565b60408051918252519081900360200190f35b6100f0600480360360608110156100dd57600080fd5b508035906020810135906040013561067a565b6040805160208082528351818301528351919283929083019185019080838360005b8381101561012a578181015183820152602001610112565b50505050905090810190601f1680156101575780820380516001836020036101000a031916815260200191505b509250505060405180910390f35b6100f06004803603602081101561017b57600080fd5b503561074f565b61019f6004803603602081101561019857600080fd5b5035610800565b60408051602080825283518183015283519192839290830191858101910280838360005b838110156101db5781810151838201526020016101c3565b505050509050019250505060405180910390f35b61020c6004803603602081101561020557600080fd5b5035610815565b604080516001600160a01b039092168252519081900360200190f35b6100b56004803603602081101561023e57600080fd5b810190602081018135600160201b81111561025857600080fd5b82018360208201111561026a57600080fd5b803590602001918460018302840111600160201b8311171561028b57600080fd5b91908080601f016020809104026020016040519081016040528093929190818152602001838380828437600092019190915250929550610846945050505050565b610377600480360360408110156102e257600080fd5b81359190810190604081016020820135600160201b81111561030357600080fd5b82018360208201111561031557600080fd5b803590602001918460018302840111600160201b8311171561033657600080fd5b91908080601f01602080910402602001604051908101604052809392919081815260200183838082843760009201919091525092955061084a945050505050565b005b61019f6004803603602081101561038f57600080fd5b5035610a61565b610377600480360360408110156103ac57600080fd5b810190602081018135600160201b8111156103c657600080fd5b8201836020820111156103d857600080fd5b803590602001918460018302840111600160201b831117156103f957600080fd5b91908080601f0160208091040260200160405190810160405280939291908181526020018383808284376000920191909152509295949360208101935035915050600160201b81111561044b57600080fd5b82018360208201111561045d57600080fd5b803590602001918460018302840111600160201b8311171561047e57600080fd5b91908080601f016020809104026020016040519081016040528093929190818152602001838380828437600092019190915250929550610a70945050505050565b6000600190506000610577600084815481106104d757fe5b6000918252602091829020600360059092020101805460408051601f600260001961010060018716150201909416939093049283018590048502810185019091528181529283018282801561056d5780601f106105425761010080835404028352916020019161056d565b820191906000526020600020905b81548152906001019060200180831161055057829003601f168201915b5050505050610846565b905060005b818110156106725761065e61063f82600101836001016000888154811061059f57fe5b6000918252602091829020600360059092020101805460408051601f60026000196101006001871615020190941693909304928301859004850281018501909152818152928301828280156106355780601f1061060a57610100808354040283529160200191610635565b820191906000526020600020905b81548152906001019060200180831161061857829003601f168201915b5050505050610cab565b604051806040016040528060018152602001600b60fa1b815250610d3d565b1561066a576001909201915b60010161057c565b50505b919050565b6060600061068e600086815481106104d757fe5b9050610744600086815481106106a057fe5b6000918252602091829020600360059092020101805460408051601f60026000196101006001871615020190941693909304928301859004850281018501909152818152928301828280156107365780601f1061070b57610100808354040283529160200191610736565b820191906000526020600020905b81548152906001019060200180831161071957829003601f168201915b505050505084830386610dc5565b9150505b9392505050565b60606000828154811061075e57fe5b6000918252602091829020600360059092020101805460408051601f60026000196101006001871615020190941693909304928301859004850281018501909152818152928301828280156107f45780601f106107c9576101008083540402835291602001916107f4565b820191906000526020600020905b8154815290600101906020018083116107d757829003601f168201915b50505050509050919050565b606061080f8260016002610e6b565b92915050565b600080828154811061082357fe5b60009182526020909120600590910201600401546001600160a01b031692915050565b5190565b600080838154811061085857fe5b600091825260209091206004600590920201908101549091506001600160a01b0316331415610a5c5781516108969060038301906020850190611417565b507f51f1e1f00d186e79f8ea7c82be079fcdd49fe881904a9cdc1903345eb69d38318160000154826001018360020184600301604051808581526020018060200180602001806020018481038452878181546001816001161561010002031660029004815260200191508054600181600116156101000203166002900480156109605780601f1061093557610100808354040283529160200191610960565b820191906000526020600020905b81548152906001019060200180831161094357829003601f168201915b50508481038352865460026000196101006001841615020190911604808252602090910190879080156109d45780601f106109a9576101008083540402835291602001916109d4565b820191906000526020600020905b8154815290600101906020018083116109b757829003601f168201915b5050848103825285546002600019610100600184161502019091160480825260209091019086908015610a485780601f10610a1d57610100808354040283529160200191610a48565b820191906000526020600020905b815481529060010190602001808311610a2b57829003601f168201915b505097505050505050505060405180910390a15b505050565b606061080f8260016002610fed565b6040805160a081018252600180548252602080830186815283850186905284518083019095526000808652606085019590955273b6bec2669f296fcaa7ec42252e5e4be3f0fe503360808501528454928301808655948052835160059093027f290decd9548b62a8d60345a988386fc84ba6bc95484008f6362f93160ef3e563810193845590518051610b2c937f290decd9548b62a8d60345a988386fc84ba6bc95484008f6362f93160ef3e564909301929190910190611417565b5060408201518051610b48916002840191602090910190611417565b5060608201518051610b64916003840191602090910190611417565b5060808201518160040160006101000a8154816001600160a01b0302191690836001600160a01b031602179055505050507f0312239616abfb14f7ffa065155abb0ca047274d86c965890db4c8a48b8ce4b66001548383604051808481526020018060200180602001838103835285818151815260200191508051906020019080838360005b83811015610c02578181015183820152602001610bea565b50505050905090810190601f168015610c2f5780820380516001836020036101000a031916815260200191505b50838103825284518152845160209182019186019080838360005b83811015610c62578181015183820152602001610c4a565b50505050905090810190601f168015610c8f5780820380516001836020036101000a031916815260200191505b509550505050505060405180910390a150506001805481019055565b6060808484036001016040519080825280601f01601f191660200182016040528015610cde576020820181803883390190505b50905060005b8585038111610d34578360018783010381518110610cfe57fe5b602001015160f81c60f81b828281518110610d1557fe5b60200101906001600160f81b031916908160001a905350600101610ce4565b50949350505050565b805182516000918491849114610d585760009250505061080f565b60005b8251811015610db957818181518110610d7057fe5b602001015160f81c60f81b6001600160f81b031916838281518110610d9157fe5b01602001516001600160f81b03191614610db1576000935050505061080f565b600101610d5b565b50600195945050505050565b825160609084908385011115610dd757fe5b6060846040519080825280601f01601f191660200182016040528015610e04576020820181803883390190505b509050806000855b878701811015610e5e57848181518110610e2257fe5b602001015160f81c60f81b838380600101945081518110610e3f57fe5b60200101906001600160f81b031916908160001a905350600101610e0c565b5090979650505050505050565b60606000610e7f600086815481106104d757fe5b90506060610f3760008781548110610e9357fe5b6000918252602091829020600360059092020101805460408051601f6002600019610100600187161502019094169390930492830185900485028101850190915281815292830182828015610f295780601f10610efe57610100808354040283529160200191610f29565b820191906000526020600020905b815481529060010190602001808311610f0c57829003601f168201915b505050505085840387610dc5565b90506060610f5e82604051806040016040528060018152602001600b60fa1b8152506110b3565b90508051604051908082528060200260200182016040528015610f8b578160200160208202803883390190505b50935060005b8151811015610fe257610fb6828281518110610fa957fe5b6020026020010151611217565b858281518110610fc257fe5b6001600160a01b0390921660209283029190910190910152600101610f91565b505050509392505050565b60606000611001600086815481106104d757fe5b9050606061101560008781548110610e9357fe5b9050606061103c82604051806040016040528060018152602001600b60fa1b8152506110b3565b90508051604051908082528060200260200182016040528015611069578160200160208202803883390190505b50935060005b8151811015610fe25761109482828151811061108757fe5b6020026020010151611302565b8582815181106110a057fe5b602090810291909101015260010161106f565b606082600060015b60018351038210156110f35760006110d4878785611397565b90508060001914156110e657506110f3565b60019081019250016110bb565b8060405190808252806020026020018201604052801561112757816020015b60608152602001906001900390816111125790505b50935060009150600090505b825182101561120e576000611149878785611397565b9050806000191415611159575082515b60608382036040519080825280601f01601f191660200182016040528015611188576020820181803883390190505b509050806000855b848110156111e0578781815181106111a457fe5b602001015160f81c60f81b8383806001019450815181106111c157fe5b60200101906001600160f81b031916908160001a905350600101611190565b50836001019550818886806001019750815181106111fa57fe5b602002602001018190525050505050611133565b50505092915050565b60008181808060025b602a8110156112f7576101008402935084818151811061123c57fe5b0160200151855160f89190911c935085906001830190811061125a57fe5b016020015160f81c915060618310801590611276575060668311155b15611286576057830392506112a4565b60308310158015611298575060398311155b156112a4576030830392505b606182101580156112b6575060668211155b156112c6576057820391506112e4565b603082101580156112d8575060398211155b156112e4576030820391505b6010830282019390930192600201611220565b509195945050505050565b6000805b8251811015611391576000603084838151811061131f57fe5b016020015160f81c0360ff16108061135057506009603084838151811061134257fe5b016020015160f81c0360ff16115b1561135f576000915050610675565b60018184510303600a0a603084838151811061137757fe5b016020015160f81c0360ff16029190910190600101611306565b50919050565b8151600090849084906001146113a957fe5b835b825181101561140957816000815181106113c157fe5b602001015160f81c60f81b6001600160f81b0319168382815181106113e257fe5b01602001516001600160f81b0319161415611401579250610748915050565b6001016113ab565b506000199695505050505050565b828054600181600116156101000203166002900490600052602060002090601f016020900481019282601f1061145857805160ff1916838001178555611485565b82800160010185558215611485579182015b8281111561148557825182559160200191906001019061146a565b50611491929150611495565b5090565b6114af91905b80821115611491576000815560010161149b565b9056fea265627a7a72315820be5cb5589ab58d009f46fe501ead30ed01f0cab0f489af4b8957dee494ea568e64736f6c63430005100032",
  "source": "pragma solidity >=0.4.21 <0.6.0;\r\n\r\ncontract Oracle {\r\n    Request[] requests; //list of requests made to the contract\r\n    uint currentId = 0; //increasing request id\r\n\r\n    // defines a general api request\r\n    struct Request {\r\n        uint id;                            //request id\r\n        string urlToQuery;                  //API url\r\n        string attributeToFetch;            //json attribute (key) to retrieve in the response\r\n        string agreedValue;                 //value from key\r\n        address payerAddress;               //address that pay tha calls\r\n    }\r\n\r\n    //event that triggers oracle outside of the blockchain\r\n    event NewRequest (\r\n        uint id,\r\n        string urlToQuery,\r\n        string attributeToFetch\r\n    );\r\n\r\n    //triggered when there's a consensus on the final result\r\n    event UpdatedRequest (\r\n        uint id,\r\n        string urlToQuery,\r\n        string attributeToFetch,\r\n        string agreedValue\r\n    );\r\n\r\n    function createRequest (\r\n        string memory _urlToQuery,\r\n        string memory _attributeToFetch\r\n    )\r\n    public\r\n    {\r\n        requests.push(Request(currentId, _urlToQuery, _attributeToFetch, \"\", address(0xB6bEC2669F296fCaA7EC42252e5e4Be3f0FE5033) ));\r\n\r\n        // launch an event to be detected by oracle outside of blockchain\r\n        emit NewRequest (\r\n            currentId,\r\n            _urlToQuery,\r\n            _attributeToFetch\r\n        );\r\n\r\n        // increase request id\r\n        currentId++;\r\n    }\r\n\r\n    //called by the oracle to record its answer\r\n    function updateRequest (\r\n        uint _id,\r\n        string memory _valueRetrieved\r\n    ) public {\r\n\r\n        Request storage currRequest = requests[_id];\r\n\r\n        //check if payerAddress is the msg.sender\r\n        if( currRequest.payerAddress == address(msg.sender) ){\r\n            currRequest.agreedValue = _valueRetrieved;\r\n                emit UpdatedRequest (\r\n                        currRequest.id,\r\n                        currRequest.urlToQuery,\r\n                        currRequest.attributeToFetch,\r\n                        currRequest.agreedValue\r\n                );\r\n\r\n        }\r\n    }\r\n\r\n    function _getAgreedValue (uint index) public view returns (string memory) {\r\n        return requests[index].agreedValue;\r\n    }\r\n\r\n    function _getPayerAddress(uint index) public view returns (address) {\r\n        return requests[index].payerAddress;\r\n    }\r\n\r\n    function _mine(string memory s) public pure returns (uint256) {\r\n        return bytes(s).length;\r\n    }\r\n\r\n    function _indexOf(string memory _base, string memory _value, uint _offset) internal pure returns (int) {\r\n        bytes memory _baseBytes = bytes(_base);\r\n        bytes memory _valueBytes = bytes(_value);\r\n\r\n        assert(_valueBytes.length == 1);\r\n\r\n        for (uint i = _offset; i < _baseBytes.length; i++) {\r\n            if (_baseBytes[i] == _valueBytes[0]) {\r\n                return int(i);\r\n            }\r\n        }\r\n\r\n        return -1;\r\n    }\r\n\r\n    function _substring(string memory _base, uint _length, uint _offset) internal pure returns (string memory) {\r\n        bytes memory _baseBytes = bytes(_base);\r\n\r\n        assert(uint(_offset + _length) <= _baseBytes.length);\r\n\r\n        string memory _tmp = new string(uint(_length));\r\n        bytes memory _tmpBytes = bytes(_tmp);\r\n\r\n        uint j = 0;\r\n        for (uint i = uint(_offset); i < uint(_offset + _length); i++) {\r\n            _tmpBytes[j++] = _baseBytes[i];\r\n        }\r\n\r\n        return string(_tmpBytes);\r\n    }\r\n\r\n    function _split(string memory _base, string memory _value) internal pure returns (string[] memory splitArr) {\r\n        bytes memory _baseBytes = bytes(_base);\r\n\r\n        uint _offset = 0;\r\n        uint _splitsCount = 1;\r\n        while (_offset < _baseBytes.length - 1) {\r\n            int _limit = _indexOf(_base, _value, _offset);\r\n            if (_limit == -1)\r\n                break;\r\n            else {\r\n                _splitsCount++;\r\n                _offset = uint(_limit) + 1;\r\n            }\r\n        }\r\n\r\n        splitArr = new string[](_splitsCount);\r\n\r\n        _offset = 0;\r\n        _splitsCount = 0;\r\n        while (_offset < _baseBytes.length) {\r\n\r\n            int _limit = _indexOf(_base, _value, _offset);\r\n            if (_limit == - 1) {\r\n                _limit = int(_baseBytes.length);\r\n            }\r\n\r\n            string memory _tmp = new string(uint(_limit) - _offset);\r\n            bytes memory _tmpBytes = bytes(_tmp);\r\n\r\n            uint j = 0;\r\n            for (uint i = _offset; i < uint(_limit); i++) {\r\n                _tmpBytes[j++] = _baseBytes[i];\r\n            }\r\n            _offset = uint(_limit) + 1;\r\n            splitArr[_splitsCount++] = string(_tmpBytes);\r\n        }\r\n        return splitArr;\r\n    }\r\n\r\n    function _getSlice(uint256 begin, uint256 end, string memory text) internal pure returns (string memory) {\r\n        bytes memory a = new bytes(end-begin+1);\r\n        for(uint i=0;i<=end-begin;i++){\r\n            a[i] = bytes(text)[i+begin-1];\r\n        }\r\n        return string(a);\r\n    }\r\n\r\n    function _compareTo(string memory _base, string memory _value) internal pure returns (bool) {\r\n        bytes memory _baseBytes = bytes(_base);\r\n        bytes memory _valueBytes = bytes(_value);\r\n\r\n        if (_baseBytes.length != _valueBytes.length) {\r\n            return false;\r\n        }\r\n\r\n        for (uint i = 0; i < _baseBytes.length; i++) {\r\n            if (_baseBytes[i] != _valueBytes[i]) {\r\n                return false;\r\n            }\r\n        }\r\n\r\n        return true;\r\n    }\r\n\r\n    function _stringToUint(string memory _str) internal pure returns(uint256 res) {\r\n\r\n        for (uint256 i = 0; i < bytes(_str).length; i++) {\r\n            if ((uint8(bytes(_str)[i]) - 48) < 0 || (uint8(bytes(_str)[i]) - 48) > 9) {\r\n                return (0);\r\n            }\r\n            res += (uint8(bytes(_str)[i]) - 48) * 10**(bytes(_str).length - i - 1);\r\n        }\r\n\r\n        return (res);\r\n    }\r\n\r\n    function _stringToAddress(string memory _a) internal pure returns (address){\r\n\r\n        bytes memory tmp = bytes(_a);\r\n        uint iaddress = 0;\r\n        uint b1;\r\n        uint b2;\r\n        for (uint i=2; i<2+2*20; i+=2){\r\n\r\n            iaddress *= 256;\r\n            b1 = uint(uint8(tmp[i]));\r\n            b2 = uint(uint8(tmp[i+1]));\r\n\r\n            if ((b1 >= 97)&&(b1 <= 102)) b1 -= 87;\r\n            else if ((b1 >= 48)&&(b1 <= 57)) b1 -= 48;\r\n\r\n            if ((b2 >= 97)&&(b2 <= 102)) b2 -= 87;\r\n            else if ((b2 >= 48)&&(b2 <= 57)) b2 -= 48;\r\n\r\n            iaddress += (b1*16+b2);\r\n        }\r\n        return address(iaddress);\r\n    }\r\n\r\n    function _testOffset (uint index, uint headOffset, uint tailOffset) public view returns (string memory t) {\r\n        uint length = _mine(requests[index].agreedValue);\r\n        t = _substring(requests[index].agreedValue, uint(length - tailOffset), headOffset);\r\n        return t;\r\n    }\r\n\r\n    function getArraySize (uint index) public view returns (uint size){\r\n        size = 1;\r\n        uint length = _mine(requests[index].agreedValue);\r\n\r\n        for (uint i=0; i < length ; i++){\r\n            if(_compareTo(_getSlice(i+1,i+1,requests[index].agreedValue),',')){\r\n                size++;\r\n            }\r\n        }\r\n        return size;\r\n    }\r\n\r\n    function getArrayInt (uint index)  public view returns (uint[] memory ints) {\r\n        return getArrayIntOffset(index, 1, 2);\r\n    }\r\n\r\n    function getArrayIntOffset (uint index, uint headOffset, uint tailOffset) internal view returns (uint[] memory ints) {\r\n\r\n        uint length = _mine(requests[index].agreedValue);\r\n        string memory t = _substring(requests[index].agreedValue, uint(length - tailOffset), headOffset);\r\n        string[] memory array = _split(t,\",\");\r\n        ints = new uint[](array.length);\r\n\r\n        for(uint256 i = 0 ; i<array.length; i++){\r\n            ints[i] = _stringToUint(array[i]);\r\n        }\r\n\r\n        return ints;\r\n    }\r\n\r\n    function getArrayAddr (uint index)  public view returns (address[] memory addrs) {\r\n        return getArrayAddrOffset(index, 1, 2);\r\n    }\r\n\r\n    function getArrayAddrOffset (uint index, uint headOffset, uint tailOffset) internal view returns (address[] memory addrs) {\r\n\r\n        uint length = _mine(requests[index].agreedValue);\r\n        string memory t = _substring(requests[index].agreedValue, uint(length - tailOffset), headOffset);\r\n        string[] memory array = _split(t,\",\");\r\n        addrs = new address[](array.length);\r\n\r\n        for(uint256 i = 0 ; i<array.length; i++){\r\n            addrs[i] = _stringToAddress(array[i]);\r\n        }\r\n\r\n        return addrs;\r\n    }\r\n}\r\n\r\n\r\n",
  "sourcePath": "C:\\Users\\39349\\Desktop\\TEST2\\oracle-on-chain\\contracts\\Oracle.sol",
  "compiler": {
    "name": "solc",
    "version": "0.5.16+commit.9c3226ce.Emscripten.clang"
  },
  "schemaVersion": "3.4.6",
  "updatedAt": "2022-03-11T17:08:23.863Z",
  "networkType": "ethereum",
  "devdoc": {
    "methods": {}
  },
  "userdoc": {
    "methods": {}
  }
}